:100000000C9463000C948B000C948B000C9487036D
:100010000C9487030C9487030C948B000C948B0036
:100020000C948B000C948B000C948B000C948B0024
:100030000C948B000C948B000C948B000C948B0014
:100040000C9476020C948B000C9455030C942F03A3
:100050000C948B000C948B000C948B000C948B00F4
:100060000C948B000C948B000000000024002700EF
:100070002A0000000008000201000003040700003D
:1000800000000000000000000000230026002900FE
:1000900000000000250028002B00040404040404D0
:1000A0000404020202020202030303030303010227
:1000B00004081020408001020408102001020408F6
:1000C00010203E0C220C11241FBECFEFD8E0DEBF63
:1000D000CDBF22E0A2EBB1E001C01D92A03DB2076E
:1000E000E1F711E0A0E0B1E0ECE3FFE102C0059030
:1000F0000D92A23BB107D9F710E0C2E6D0E004C0F0
:100100002197FE010E947E0DC136D107C9F70E94DA
:1001100001090C94910F0C940000CF92DF92EF92A2
:10012000FF920F931F93CF93DF936C017A018B01A2
:10013000C0E0D0E0CE15DF0581F0D8016D918D01D2
:10014000D601ED91FC910190F081E02DC601099559
:10015000892B11F02196EECF7E01C701DF91CF915F
:100160001F910F91FF90EF90DF90CF900895FC01C9
:10017000538D448D252F30E0842F90E0821B930B0C
:10018000541710F0CF96089501970895FC01918DB2
:10019000828D981761F0828DDF01A80FB11D5D96E9
:1001A0008C91928D9F5F9F73928F90E008958FEF57
:1001B0009FEF0895FC01918D828D981731F0828D0B
:1001C000E80FF11D858D90E008958FEF9FEF089562
:1001D000FC01918D228D892F90E0805C9F4F821BC6
:1001E00091098F739927089580E092E00E94E800BA
:1001F00021E0892B09F420E0822F0895FC01848DF1
:10020000DF01A80FB11DA35ABF4F2C91848D90E040
:1002100001968F739927848FA689B7892C93A0891B
:10022000B1898C91837080648C93938D848D9813A5
:1002300006C00288F389E02D80818F7D8083089538
:10024000EF92FF920F931F93CF93DF93EC0181E026
:10025000888F9B8D8C8D981305C0E889F9898081E2
:1002600085FD26C0F62E0B8D10E00F5F1F4F0F731C
:100270001127E02E8C8DE8120CC00FB607FCFACFC8
:10028000E889F989808185FFF5CFCE010E94FE00C3
:10029000F1CF8B8DFE01E80FF11DE35AFF4FF08285
:1002A0009FB7F8940B8FEA89FB89808180620AC02E
:1002B0009FB7F894EE89FF896083E889F989808186
:1002C0008370806480839FBF81E090E0DF91CF9155
:1002D0001F910F91FF90EF900895CF93DF93EC0162
:1002E000888D8823C9F0EA89FB89808185FD05C056
:1002F000A889B9898C9186FD0FC00FB607FCF5CF90
:10030000808185FFF2CFA889B9898C9185FFEDCFD7
:10031000CE010E94FE00E7CFDF91CF91089580E0EB
:1003200090E0892B29F00E94F40081110C940000C8
:1003300008952091F5013091F6012817390771F4DD
:100340009091F3018091F401981741F0E091F3014D
:10035000F0E0EE54FE4F808190E008958FEF9FEF24
:10036000089508951F93CF93DF93DC015C968D91E0
:100370009C915D97009739F421E030E013963C930F
:100380002E9312973BC05196ED91FC915297509647
:100390002C915097322F30951FB75E964C915E97F7
:1003A000742F727041FD6095F8944081772311F0AD
:1003B000422B01C043234083EC012197F1F748E031
:1003C000508160FF02C0522B01C053235083EC01C7
:1003D0002197F1F76695415099F78081772319F0BD
:1003E0008323808302C0282B20831FBF5C968D91BE
:1003F0009C915D970197F1F781E090E0DF91CF91BB
:100400001F9108952091F5013091F60128173907C1
:1004100071F48091F4012091F30190E0805C9F4F92
:10042000821B910960E470E00E94560D089580E0FF
:1004300090E008952091F5013091F60128173907D1
:10044000B9F49091F3018091F401981789F0E0914B
:10045000F301F0E0EE54FE4F80812091F30130E093
:100460002F5F3F4F2F7333272093F30190E00895C0
:100470008FEF9FEF0895089580E090E00895BC010C
:100480006E5F7F4FDC01ED91FC910190F081E02DDA
:1004900040E0099591E0811190E0892F08950E9434
:1004A0006B0F3FB7F8948091FC019091FD01A091F2
:1004B000FE01B091FF0126B5A89B05C02F3F19F0A2
:1004C0000196A11DB11D3FBFBA2FA92F982F8827D4
:1004D000820F911DA11DB11DBC01CD0142E0660F2F
:1004E000771F881F991F4A95D1F708951F920F9281
:1004F0000FB60F9211242F933F938F939F93AF9337
:10050000BF938091F8019091F901A091FA01B09107
:10051000FB013091F70123E0230F2D3720F40196E2
:10052000A11DB11D05C026E8230F0296A11DB11D16
:100530002093F7018093F8019093F901A093FA01B9
:10054000B093FB018091FC019091FD01A091FE010F
:10055000B091FF010196A11DB11D8093FC01909304
:10056000FD01A093FE01B093FF01BF91AF919F9158
:100570008F913F912F910F900FBE0F901F90189564
:100580000F931F93CF93DF93EC018881998100979C
:1005900029F02A813B812617370788F48B016F5F8A
:1005A0007F4F0E94A50E009761F0998388831B837B
:1005B0000A832C813D81232B11F4FC01108281E000
:1005C00001C080E0DF91CF911F910F910895CF93EB
:1005D000DF93EC0188819981009711F00E941C0E35
:1005E000198218821D821C821B821A82DF91CF9190
:1005F0000895EF92FF920F931F93CF93DF93EC0137
:100600007B018A01BA010E94C002811104C0CE019F
:100610000E94E70207C01D830C83B701888199817E
:100620000E948A0FCE01DF91CF911F910F91FF9011
:10063000EF900895FC0111821082138212821582BC
:1006400014826115710551F0FB0101900020E9F75A
:100650003197AF01461B570B0C94F90208951F9276
:100660000F920FB60F9211242F933F934F935F93E6
:100670006F937F938F939F93AF93BF93EF93FF936A
:1006800080E092E00E94FE00FF91EF91BF91AF9158
:100690009F918F917F916F915F914F913F912F919A
:1006A0000F900FBE0F901F9018951F920F920FB6CC
:1006B0000F9211242F938F939F93EF93FF93E091C9
:1006C0001002F09111028081E0911602F091170260
:1006D00082FD12C09081809119028F5F8F732091EB
:1006E0001A02821751F0E0911902F0E0E050FE4F3B
:1006F000958F8093190201C08081FF91EF919F91A6
:100700008F912F910F900FBE0F901F9018951F92F1
:100710000F920FB60F9211242F933F934F935F9335
:100720006F937F938F939F93AF93BF93EF93FF93B9
:10073000E091F501F091F601309709F451C0968DE2
:10074000A685B785858591FF04C09C91892329F4EE
:1007500047C09C91892309F043C0A389B4899C9127
:100760008589809589238C93868997890197F1F7EC
:10077000608D718DA685B785558538E020E0CB0169
:100780000197F1F7822F90E095958795282F4C914E
:10079000452309F02068315091F7868D81FD209521
:1007A0008091F40190E001968F7399273091F301C5
:1007B000381749F0A091F401B0E0AE54BE4F2C932D
:1007C0008093F40103C0868D8160868F828D938D26
:1007D0000197F1F7A389B4899C918589892B8C9322
:1007E000FF91EF91BF91AF919F918F917F916F9109
:1007F0005F914F913F912F910F900FBE0F901F90DF
:10080000189508958EBD00000DB407FEFDCF8EB57E
:1008100008958CBD9DBD08951F93CF93DF93EC0188
:10082000162F83E590E00E94090460E08E850E9407
:10083000AE06812F80680E94020480E00E940204BC
:10084000182F61E08E850E94AE06812FDF91CF9137
:100850001F9108950F931F93CF93DF93EC01062F01
:10086000142F83E590E00E94090460E08E850E94C9
:10087000AE06802F0E940204812F0E94020461E0D4
:100880008E85DF91CF911F910F910C94AE06AF92A0
:10089000BF92CF92EF92FF920F931F93CF93DF936C
:1008A00000D000D01F92CDB7DEB75C0182E08D830F
:1008B00040E064E2C5010E942A0440E066E2C5010E
:1008C0000E942A0446E268E4C5010E942A0486E2E6
:1008D0008B838D81823038F16CE1C5010E940C045C
:1008E000482F4F776CE1C5010E942A0487E08C8372
:1008F000C12CCE0104967C018E010B5F1F4F9E011F
:100900002F5F3F4F41E0BE016D5F7F4FC5010E94E9
:100910005B0781110BC08D81823039F481E09C81AD
:10092000911104C008C084E001C081E091E08230F0
:1009300019F090E001C091E0892F0F900F900F9077
:100940000F900F90DF91CF911F910F91FF90EF903B
:10095000CF90BF90AF9008952F923F924F925F92A9
:100960006F927F928F929F92AF92BF92CF92DF92BF
:10097000EF92FF920F931F93CF93DF93CDB7DEB724
:100980002B970FB6F894DEBF0FBECDBF413508F0F0
:100990000AC1342E4B015C016CE10E940C04482F0B
:1009A0004F776CE1C5010E942A044424439432E04D
:1009B000431691F083E04816E1F091E04912F5C04A
:1009C00083E989833320D1F081E0F401908195306F
:1009D00008F480E0512C17C0F5E9F983332081F049
:1009E00081E0F4019081983008F480E053E0552EC6
:1009F0000AC087E9898346E0542E04C0512C02C006
:100A000033E0532E80E0D32CF8E05F9ED018112401
:100A1000D7FCD12C882321F098E89B8333E001C0D8
:100A200032E021E09D2D977009F420E09D2D9595F1
:100A300095959595290F31F4882309F491C038E0F4
:100A4000D30E8EC0811102C094E001C093E029173B
:100A500008F4922FE52DF0E03196E80DF91D232FD3
:100A60004191A1E0B0E0AC0FBD1FA20FB11D4C93AE
:100A70002F5F422F431B491798F3DECF8111DDC052
:100A80009FE19D150CF493C080E2D82E90E79A83E5
:100A90009B818C8189279D8189279E8189278F83CE
:100AA0009E01285F3F4F47E0BE016F5F7F4FC5014A
:100AB0000E940F078111A2C01A86E3E0EB87CE01E6
:100AC00007963C0129E0222ECA844C2D4295407F96
:100AD0004C0D6AE1C5010E942A04CE010A967C01F0
:100AE0008E01055F1F4F9301422DBE016F5F7F4F47
:100AF000C5010E945B07182F823009F0BFCF6CE15F
:100B0000C5010E940C0485FD98C08F7109F480E234
:100B1000282F30E04D2DDD0C550B421753070CF0FC
:100B200044C0D82E85958595859591E0980F422FE4
:100B3000477081E009F480E0890FE1E0F0E0EC0F1C
:100B4000FD1FE80FF11D215031092770332781E087
:100B500090E001C0880F2A95EAF79081892B808365
:100B60008FE18D150CF492CF9D2D97709A878D2D66
:100B70008595859585958E5F292FE0E18E9F200DC7
:100B800011242A8321E0911101C020E0222E280E99
:100B900066246394712C6C0E7D1E680E711CF9E046
:100BA000F81BFB8791CF16E048C015E046C08B814B
:100BB000883809F43FC082E094E0E52DF0E03196FA
:100BC000E80DF91D980FA1E0B0E0AC0FBD1FA80F14
:100BD000B11D2C9121938F5F8913F5CF8B858330C5
:100BE00029F58A85811122C09E012D5F3F4F41E08A
:100BF000B301C5010E940F07882311F0182F1DC0F3
:100C00009B81F3018181981313C09C818281981389
:100C10000FC0808182FF02C04394C9CEF401838754
:100C2000842D880F480E4394408207C011E005C010
:100C300017E003C083E093E0C0CF812F2B960FB65F
:100C4000F894DEBF0FBECDBFDF91CF911F910F9102
:100C5000FF90EF90DF90CF90BF90AF909F908F90DC
:100C60007F906F905F904F903F902F9008950097E6
:100C700069F0FC0101900020E9F73197AF01481BB2
:100C8000590BBC0180E092E00C948D0080E090E074
:100C90000895CF93DF930E943706EC018EE591E033
:100CA0000E9437068C0F9D1FDF91CF910895EF9220
:100CB000FF920F931F93CF93DF936115710511F48A
:100CC00080E01CC041155105C1F07B01EC018C8115
:100CD0009D818A01080F191FB801CE010E94C00230
:100CE000882371F3288139818C819D81B701820F1E
:100CF000931F0E948A0F1D830C8381E0DF91CF91A7
:100D00001F910F91FF90EF900895833081F028F4A8
:100D1000813099F08230A1F008958730A9F08830B1
:100D2000B9F08430D1F4809180008F7D03C0809130
:100D300080008F7780938000089584B58F7702C0FC
:100D400084B58F7D84BD08958091B0008F7703C0F6
:100D50008091B0008F7D8093B00008951F93CF9352
:100D6000DF93282F30E0F901EE58FF4F8491F9010D
:100D7000E255FF4FD491F901E656FF4FC491CC23C1
:100D8000C1F0162F81110E948506EC2FF0E0EE0FC6
:100D9000FF1FE057FF4FA591B4919FB7F894111131
:100DA00004C08C91D095D82302C0EC91DE2BDC934B
:100DB0009FBFDF91CF911F910895DF92EF92FF9235
:100DC0000F931F93CF93DF938C01F62ED42EE52E35
:100DD00083E590E00E94090460E0F80186850E94A6
:100DE000AE0682E10E940204CD2DDE2DCE018F0DD4
:100DF000911D7C01EC16FD0621F089910E940204F0
:100E0000F9CF61E0F80186850E94AE06DF91CF91AF
:100E10001F910F91FF90EF90DF900C940104CF92FF
:100E2000DF92EF92FF920F931F93CF93DF93EC012A
:100E30006B01142F790140E062E00E942A0444E033
:100E40006AE0CE010E942A0440E864E1CE010E94DB
:100E50002A04A601612FCE010E94DD0643E062E074
:100E6000CE010E942A0408E813E16AE0CE010E9444
:100E70000C0482FF13C040E062E0CE010E942A040D
:100E800064E4CE010E940C04F701808362E4CE0189
:100E90000E940C04F701818380E004C00150110915
:100EA00021F783E0DF91CF911F910F91FF90EF9099
:100EB000DF90CF9008957F928F929F92AF92BF92D2
:100EC000CF92DF92EF92FF920F931F93CF93DF9316
:100ED000EC014B01742E5901E114F10419F0F701F2
:100EE000408101C040E0D42EF0E1CF9ED00C11240F
:100EF00040E062E0CE010E942A044FE768E0CE01A4
:100F00000E942A0440E864E1CE010E942A04A40160
:100F1000672DCE010E94DD064D2D6AE1CE010E94B3
:100F20002A044CE062E0CE010E942A046AE1CE016C
:100F30000E940C04482F40686AE1CE010E942A04F6
:100F400080ED882E87E0982E68E0CE010E940C0488
:100F5000982F907341F480FD04C081E0881A9108B5
:100F600099F783E072C06CE0CE010E940C04982EC9
:100F7000837109F069C0A114B10409F45DC00115C1
:100F8000110509F459C064E1CE010E940C04882EB9
:100F9000F8018081881508F453C08082882009F404
:100FA00041C083E590E00E94090460E08E850E94C4
:100FB000AE06DD24DA94D80C82E90E940204CC202B
:100FC000A9F00FEF10E001C0000FCA94EAF782E920
:100FD0000E940204202F2095F50190819223802306
:100FE000092F082B00838824839401C0812C282D8D
:100FF00030E08D1450F48501020F131F82E90E9426
:101000000204F80180838394F2CFA20EB31E80E025
:101010000E940204F501808361E08E850E94AE0685
:101020000E94010468E1CE010E940C048770E11463
:10103000F10411F0F701808393FC04C080E005C047
:1010400084E003C082E001C081E0DF91CF911F9175
:101050000F91FF90EF90DF90CF90BF90AF909F9057
:101060008F907F900895CF93DF9390E0FC01E2553D
:10107000FF4F2491FC01E656FF4F8491882361F1D4
:1010800090E0880F991FFC01E859FF4FC591D4915A
:10109000FC01E057FF4FA591B491611109C09FB7C2
:1010A000F8948881209582238883EC912E230BC0AD
:1010B000623061F49FB7F8948881322F3095832392
:1010C0008883EC912E2B2C939FBF06C08FB7F8948A
:1010D000E8812E2B28838FBFDF91CF9108958F92C7
:1010E0009F92AF92BF92CF92DF92EF92FF926B01ED
:1010F0007C010E9451024B015C01C114D104E10446
:10110000F104F1F00E945102DC01CB018819990928
:10111000AA09BB09883E9340A105B10570F321E0FF
:10112000C21AD108E108F10888EE880E83E0981E03
:10113000A11CB11CC114D104E104F10419F7DDCFE5
:10114000FF90EF90DF90CF90BF90AF909F908F90E7
:101150000895AF92BF92CF92DF92EF92FF920F93DA
:101160001F93CF93DF937C016B015A01452B31F420
:1011700000E010E0AA24A394B12C02C001E010E02A
:1011800060E671E0C7010E941A03D6011496CD9162
:10119000DC9115970C171D0740F5AC16BD0608F439
:1011A000E501D601ED91FC911197EC0FFD1FB08088
:1011B00010826D917C91600F711F6115710561F056
:1011C000FB0101900020E9F73197AF01461B570B57
:1011D000C7010E94F90203C0C7010E94E702F6019D
:1011E00080819181C80FD91FB882C701DF91CF914B
:1011F0001F910F91FF90EF90DF90CF90BF90AF9035
:101200000895CF93DF93CDB7DEB7AD970FB6F894BF
:10121000DEBF0FBECDBF789484B5826084BD84B537
:10122000816084BD85B5826085BD85B5816085BDE1
:1012300080916E00816080936E0010928100809199
:101240008100826080938100809181008160809321
:101250008100809180008160809380008091B10046
:1012600084608093B1008091B00081608093B00071
:1012700080917A00846080937A0080917A00826005
:1012800080937A0080917A00816080937A008091C7
:101290007A00806880937A001092C100E091100279
:1012A000F091110282E08083E0910C02F0910D0236
:1012B0001082E0910E02F0910F028FEC8083109269
:1012C0001802E0911402F091150286E08083E0910B
:1012D0001202F0911302808180618083E0911202FA
:1012E000F0911302808188608083E0911202F09176
:1012F0001302808180688083E0911202F0911302D2
:1013000080818F7D80831FB7F8948091F2018111D5
:1013100027C0E4EAF0E08491E8EBF0E09491E82F54
:10132000F0E0EE0FFF1FE859FF4FA591B491EC914B
:10133000E92321F461E08AE00E94AE0661E08AE0E0
:101340000E9433088CB580618CBD8CB580648CBDE7
:1013500061E08DE00E94330861E08BE00E94330879
:101360008091F2018F5F8093F2011FBF61E0809155
:10137000CA020E94330861E08091CA020E94AE0650
:101380008091CB028F3F41F44FE062E08CEB92E022
:101390000E942A0413E025C060E00E9433082091D7
:1013A000CB0230E0F901EE58FF4F8491F901E2558C
:1013B000FF4F0491F901E656FF4F14911123F9F004
:1013C00081110E948506E12FF0E0EE0FFF1FEA5722
:1013D000FF4FA591B491EC91E02389F0D5CF115046
:1013E00039F162E370E080E090E00E946F0862E013
:1013F0008CEB92E00E940C0484FF1AC0F0CF61E0F5
:101400008091CB020E94330860E08091CB020E9461
:10141000AE0683E090E00197F1F761E08091CB02A6
:101420000E94AE0662E370E080E090E00E946F08E8
:1014300040E064E28CEB92E00E942A0440E066E225
:101440008CEB92E00E942A0446E268E48CEB92E086
:101450000E942A0440E864E58CEB92E00E942A0492
:1014600049EA66E58CEB92E00E942A0443E068E5D5
:101470008CEB92E00E942A0448EE6AE58CEB92E045
:101480000E942A0440E46AE28CEB92E00E942A0463
:101490004DE362E28CEB92E00E942A0468E28CEB5E
:1014A00092E00E940C04982F9370933039F0482FEB
:1014B000436068E28CEB92E00E942A0487E391E0AB
:1014C0000E9449068EE591E00E9437061092B8020C
:1014D0001092B7021092B6021092B5021092B402A6
:1014E0001092B3028DE991E09093BA028093B90211
:1014F0009091A902963108F058C02DEB30E030935E
:10150000B4022093B3022BE931E03093B60220936A
:10151000B5022CE231E03093B8022093B70240913B
:101520006800983058F031E09E3008F430E021E057
:10153000822F01C0880F3A95EAF701C084E0842B1E
:1015400080936800983038F09E3040F0963148F033
:1015500020E030E008C02DE630E005C02BE630E0AA
:1015600002C02CE630E03093B1022093B0029830F4
:1015700030F481E001C0880F9A95EAF70EC0292F58
:1015800030E09E3018F42850310902C02E50310945
:1015900081E001C0880F2A95EAF78093B20280911A
:1015A000B9029091BA020197F1F78091B702909138
:1015B000B802892B49F1E091F501F091F60122E0A2
:1015C000ED39F20709F1309739F0A389B4899C917C
:1015D0008589809589238C938091BB028E7F80932F
:1015E000BB021092F4011092F3018DE992E0909306
:1015F000F6018093F501E091B002F091B102908183
:101600008091B202892B80838E010F5F1F4F8CEB7C
:1016100092E00E944704882309F411C18CEB92E008
:101620000E943F02D82E882309F409C18DE992E077
:101630000E940202892B49F08DE992E00E941A0271
:10164000682F80E092E00E94200180E092E00E94FA
:10165000E800892B49F080E092E00E94C600682FE4
:101660008DE992E00E94B20181E691E00E94370686
:1016700060E671E0CE0188960E941A03C12C809129
:10168000BE02C81608F074C08C2D90E0FC01E45432
:10169000FD4F7F018381803118F084E791E002C023
:1016A00084E391E00E943706F701438150E060E057
:1016B00070E019A2FE01B196DB01CA018F70992773
:1016C000AA27BB2794E076956795579547959A95F5
:1016D000D1F731978A3014F4805D01C0895C808332
:1016E000411551056105710539F7CF010E94370693
:1016F000F7018381803118F064E771E002C064E390
:1017000071E0C8010E941A034D815E8169817A816E
:10171000CE0188960E94570689819A810E941C0EEC
:10172000F70183811BA21AA21DA21CA21FA21EA246
:1017300040E1B80190E00E94F50CF8010190002012
:10174000E9F73197AF01401B510BB801CE018296EA
:101750000E94F9024EA15FA16AA17BA1CE018896E9
:101760000E9457068AA19BA10E941C0EC39487CF9A
:101770008EE591E00E9437068BE691E00E943706E5
:10178000E8A4F9A4E114F10469F0F7018081882349
:1017900049F0082E000C990B0E94700FF7018193FD
:1017A0007F01F3CF4CA55DA5BE01685D7F4FCE01E3
:1017B00082960E94A9088EA19FA1892B41F066E71D
:1017C00071E08AA19BA10E94810F892BD9F04CA5C1
:1017D0005DA5BE01685D7F4FC8010E94A9088D818B
:1017E0009E81E980FA80892B49F062E871E0C701A7
:1017F0000E94810FDD24D394892B09F0D12CC701DD
:101800000E941C0E8AA19BA10E941C0EDD2079F073
:101810008EE891E00E9449068EE591E00E9437062D
:1018200068EB7BE080E090E00E946F0804C083EAF0
:1018300091E00E94490688A599A50E941C0E0E946D
:101840008F01E5CE8CE191E090939E0280939D0202
:101850008091F5019091F6018D59924071F4E091DB
:10186000B002F091B10290818091B20280958923FB
:1018700080831092F6011092F501089510920302F0
:101880001092020288EE93E0A0E0B0E080930402A0
:1018900090930502A0930602B09307022AE031E07C
:1018A000309301022093000225EC30E030930D02CA
:1018B00020930C0224EC30E030930F0220930E02B0
:1018C00020EC30E0309311022093100221EC30E044
:1018D000309313022093120222EC30E03093150271
:1018E0002093140226EC30E0309317022093160266
:1018F0001092190210921A0210921B0210921C02EE
:101900002EE231E03093BD022093BC022AE0209306
:10191000CA0229E02093CB021092A00210929F02EB
:101920008093A1029093A202A093A302B093A40279
:101930008CE191E090939E0280939D021092B402FC
:101940001092B3021092B6021092B5021092B80231
:101950001092B7021092BA021092B9026091BB02C3
:101960006E7F6D7F6093BB026695617081E0682732
:1019700083E00E94AE0661E083E00E943308E1EB61
:10198000F0E0E491E093AD02EDE9F0E0E491F0E005
:10199000EE0FFF1FE057FF4F859194919093AF0298
:1019A0008093AE0260E082E00E9433088091BB0227
:1019B00081FD04C061E082E00E94AE0682E0809377
:1019C000A902E0EBF0E0E491E093AA02ECE9F0E098
:1019D000E491F0E0EE0FFF1FEA57FF4F85919491DD
:1019E0009093AC028093AB020895BB27FB0155276F
:1019F000AA27880F991FAA1FA41710F0A41B83956C
:101A00005051B9F7A05DAA3308F0A95DA1930097E2
:101A100079F7B111B1931192CB010C940F0DDC0148
:101A2000FC01672F71917723E1F7329704C07C9115
:101A30006D9370836291AE17BF07C8F308952F921C
:101A40003F924F925F926F927F928F929F92AF924E
:101A5000BF92CF92DF92EF92FF920F931F93CF939B
:101A6000DF93CDB7DEB7CA1BDB0B0FB6F894DEBF32
:101A70000FBECDBF09942A88398848885F846E8458
:101A80007D848C849B84AA84B984C884DF80EE80A2
:101A9000FD800C811B81AA81B981CE0FD11D0FB6AB
:101AA000F894DEBF0FBECDBFED01089597FB072E62
:101AB00016F4009407D077FD09D00E946A0D07FC48
:101AC00005D03EF4909581959F4F0895709561954E
:101AD0007F4F0895AA1BBB1B51E107C0AA1FBB1F64
:101AE000A617B70710F0A61BB70B881F991F5A95AA
:101AF000A9F780959095BC01CD010895EE0FFF1FC9
:101B00000590F491E02D09940F931F93CF93DF93E9
:101B10008230910510F482E090E0E091CE02F091E5
:101B2000CF0220E030E0A0E0B0E0309719F1408132
:101B300051810281138148175907C8F0841795070E
:101B400069F4109731F012960C93129713961C9328
:101B500027C00093CE021093CF0222C02115310579
:101B600019F04217530718F49A01BD01EF01DF0184
:101B7000F801DBCF21153105F9F0281B390B243092
:101B8000310580F48A819B816115710521F0FB018B
:101B90009383828304C09093CF028093CE02FE0190
:101BA000329644C0FE01E20FF31F819391932250BD
:101BB0003109398328833AC02091CC023091CD027B
:101BC000232B41F420910201309103013093CD0287
:101BD0002093CC02209100013091010121153105A3
:101BE00041F42DB73EB74091040150910501241BEB
:101BF000350BE091CC02F091CD02E217F307A0F48F
:101C00002E1B3F0B2817390778F0AC014E5F5F4F52
:101C10002417350748F04E0F5F1F5093CD024093B5
:101C2000CC028193919302C0E0E0F0E0CF01DF911C
:101C3000CF911F910F910895CF93DF93009709F4EF
:101C400081C0FC01329713821282A091CE02B09122
:101C5000CF02109781F420813181820F931F209150
:101C6000CC023091CD022817390751F5F093CD02FF
:101C7000E093CC0267C0ED0120E030E0CE17DF0733
:101C800040F44A815B819E0141155105F1F0EA0162
:101C9000F5CFD383C28340815181840F951FC8172C
:101CA000D90759F488819981840F951F02969183F1
:101CB00080838A819B81938382832115310529F456
:101CC000F093CF02E093CE023DC0E901FB83EA83AB
:101CD00049915991C40FD51FEC17FD0761F480811C
:101CE0009181840F951F0296E901998388838281EF
:101CF00093819B838A83E0E0F0E012968D919C9122
:101D00001397009719F0FD01DC01F7CF8D919C919D
:101D100011979D012E5F3F4F820F931F2091CC02A0
:101D20003091CD022817390769F4309729F41092C1
:101D3000CF021092CE0202C013821282B093CD0263
:101D4000A093CC02DF91CF910895A0E0B0E0EBEA40
:101D5000FEE00C94230DEC01009721F4CB010E94CE
:101D6000840DB4C0FC01E60FF71F9C01225031091D
:101D7000E217F30708F4A8C0D9010D911C9111973F
:101D800006171707B0F00530110508F49BC0C8010D
:101D900004978617970708F495C002501109061B8F
:101DA000170B019311936D937C93CF010E941C0E2E
:101DB00089C05B01A01AB10A4C01800E911EA0914E
:101DC000CE02B091CF02612C712CE12CF12C109736
:101DD00009F446C08D919C911197A815B905B1F5EC
:101DE0006C0142E0C40ED11CCA14DB0478F14C0132
:101DF0008A189B08640142E0C40ED11C1296BC9064
:101E000012971396AC91B5E0CB16D10440F0B28294
:101E1000A38391828082D9016D937C9309C00E5F68
:101E20001F4F800F911FF90191838083EB2DFA2FB3
:101E3000E114F10431F0D7011396FC93EE9312975D
:101E400041C0F093CF02E093CE023CC06816790601
:101E500008F43C017D0112960D90BC91A02DB7CFE6
:101E60008091CC029091CD0288169906E1F4661615
:101E70007706C8F48091000190910101009741F428
:101E80008DB79EB74091040150910501841B950BBD
:101E9000E817F907C8F4F093CD02E093CC02F901FA
:101EA000718360830FC0CB010E94840D7C01009779
:101EB00059F0A801BE010E94780FCE010E941C0EAD
:101EC000C70104C0CE0102C080E090E0CDB7DEB70C
:101ED000EEE00C943F0D81E090E0F8940C94910FAB
:101EE0009111089581568A5108F4805285580895B9
:101EF000FB01DC0102C001900D9241505040D8F727
:101F00000895FB01DC018D91019080190110D9F336
:101F1000990B0895FB01DC0101900D920020E1F77F
:101F2000089510E0C2E6D0E004C0FE010E947E0DDC
:0C1F30002196C336D107C9F7F894FFCF03
:101F3C000000D00220000000000020018D00B7003E
:101F4C006D01E800C600DA0000000000B2018D004F
:101F5C003C02B10102021A02990100000000AC041B
:101F6C0047043F02203000417070726F78696D61D8
:101F7C00746520796F7572206361726420746F20B0
:101F8C00746865207265616465722E2E2E000D0AD0
:101F9C000055494420746167203A004D65737361A4
:101FAC006765203A200044392041372044442035CD
:101FBC0036003939203536204145203437004175FB
:101FCC0074686F72697A65642061636365737320EA
:101FDC003D2900204163636573732064656E6965F8
:021FEC0064008F
:00000001FF
